{
  "_format": "hh-sol-artifact-1",
  "contractName": "OtterBondDepository",
  "sourceName": "contracts/OtterBondDepository.sol",
  "abi": [
    {
      "inputs": [
        {
          "internalType": "address",
          "name": "_CLAM",
          "type": "address"
        },
        {
          "internalType": "address",
          "name": "_principle",
          "type": "address"
        },
        {
          "internalType": "address",
          "name": "_treasury",
          "type": "address"
        },
        {
          "internalType": "address",
          "name": "_DAO",
          "type": "address"
        },
        {
          "internalType": "address",
          "name": "_bondCalculator",
          "type": "address"
        }
      ],
      "stateMutability": "nonpayable",
      "type": "constructor"
    },
    {
      "anonymous": false,
      "inputs": [
        {
          "indexed": false,
          "internalType": "uint256",
          "name": "deposit",
          "type": "uint256"
        },
        {
          "indexed": true,
          "internalType": "uint256",
          "name": "payout",
          "type": "uint256"
        },
        {
          "indexed": true,
          "internalType": "uint256",
          "name": "expires",
          "type": "uint256"
        },
        {
          "indexed": true,
          "internalType": "uint256",
          "name": "priceInUSD",
          "type": "uint256"
        }
      ],
      "name": "BondCreated",
      "type": "event"
    },
    {
      "anonymous": false,
      "inputs": [
        {
          "indexed": true,
          "internalType": "uint256",
          "name": "priceInUSD",
          "type": "uint256"
        },
        {
          "indexed": true,
          "internalType": "uint256",
          "name": "internalPrice",
          "type": "uint256"
        },
        {
          "indexed": true,
          "internalType": "uint256",
          "name": "debtRatio",
          "type": "uint256"
        }
      ],
      "name": "BondPriceChanged",
      "type": "event"
    },
    {
      "anonymous": false,
      "inputs": [
        {
          "indexed": true,
          "internalType": "address",
          "name": "recipient",
          "type": "address"
        },
        {
          "indexed": false,
          "internalType": "uint256",
          "name": "payout",
          "type": "uint256"
        },
        {
          "indexed": false,
          "internalType": "uint256",
          "name": "remaining",
          "type": "uint256"
        }
      ],
      "name": "BondRedeemed",
      "type": "event"
    },
    {
      "anonymous": false,
      "inputs": [
        {
          "indexed": false,
          "internalType": "uint256",
          "name": "initialBCV",
          "type": "uint256"
        },
        {
          "indexed": false,
          "internalType": "uint256",
          "name": "newBCV",
          "type": "uint256"
        },
        {
          "indexed": false,
          "internalType": "uint256",
          "name": "adjustment",
          "type": "uint256"
        },
        {
          "indexed": false,
          "internalType": "bool",
          "name": "addition",
          "type": "bool"
        }
      ],
      "name": "ControlVariableAdjustment",
      "type": "event"
    },
    {
      "anonymous": false,
      "inputs": [
        {
          "indexed": true,
          "internalType": "address",
          "name": "previousOwner",
          "type": "address"
        },
        {
          "indexed": true,
          "internalType": "address",
          "name": "newOwner",
          "type": "address"
        }
      ],
      "name": "OwnershipPulled",
      "type": "event"
    },
    {
      "anonymous": false,
      "inputs": [
        {
          "indexed": true,
          "internalType": "address",
          "name": "previousOwner",
          "type": "address"
        },
        {
          "indexed": true,
          "internalType": "address",
          "name": "newOwner",
          "type": "address"
        }
      ],
      "name": "OwnershipPushed",
      "type": "event"
    },
    {
      "inputs": [],
      "name": "CLAM",
      "outputs": [
        {
          "internalType": "address",
          "name": "",
          "type": "address"
        }
      ],
      "stateMutability": "view",
      "type": "function"
    },
    {
      "inputs": [],
      "name": "DAO",
      "outputs": [
        {
          "internalType": "address",
          "name": "",
          "type": "address"
        }
      ],
      "stateMutability": "view",
      "type": "function"
    },
    {
      "inputs": [],
      "name": "adjustment",
      "outputs": [
        {
          "internalType": "bool",
          "name": "add",
          "type": "bool"
        },
        {
          "internalType": "uint256",
          "name": "rate",
          "type": "uint256"
        },
        {
          "internalType": "uint256",
          "name": "target",
          "type": "uint256"
        },
        {
          "internalType": "uint256",
          "name": "buffer",
          "type": "uint256"
        },
        {
          "internalType": "uint256",
          "name": "lastTimestamp",
          "type": "uint256"
        }
      ],
      "stateMutability": "view",
      "type": "function"
    },
    {
      "inputs": [],
      "name": "bondCalculator",
      "outputs": [
        {
          "internalType": "address",
          "name": "",
          "type": "address"
        }
      ],
      "stateMutability": "view",
      "type": "function"
    },
    {
      "inputs": [
        {
          "internalType": "address",
          "name": "",
          "type": "address"
        }
      ],
      "name": "bondInfo",
      "outputs": [
        {
          "internalType": "uint256",
          "name": "payout",
          "type": "uint256"
        },
        {
          "internalType": "uint256",
          "name": "vesting",
          "type": "uint256"
        },
        {
          "internalType": "uint256",
          "name": "lastTimestamp",
          "type": "uint256"
        },
        {
          "internalType": "uint256",
          "name": "pricePaid",
          "type": "uint256"
        }
      ],
      "stateMutability": "view",
      "type": "function"
    },
    {
      "inputs": [],
      "name": "bondPrice",
      "outputs": [
        {
          "internalType": "uint256",
          "name": "price_",
          "type": "uint256"
        }
      ],
      "stateMutability": "view",
      "type": "function"
    },
    {
      "inputs": [],
      "name": "bondPriceInUSD",
      "outputs": [
        {
          "internalType": "uint256",
          "name": "price_",
          "type": "uint256"
        }
      ],
      "stateMutability": "view",
      "type": "function"
    },
    {
      "inputs": [],
      "name": "currentDebt",
      "outputs": [
        {
          "internalType": "uint256",
          "name": "",
          "type": "uint256"
        }
      ],
      "stateMutability": "view",
      "type": "function"
    },
    {
      "inputs": [],
      "name": "debtDecay",
      "outputs": [
        {
          "internalType": "uint256",
          "name": "decay_",
          "type": "uint256"
        }
      ],
      "stateMutability": "view",
      "type": "function"
    },
    {
      "inputs": [],
      "name": "debtRatio",
      "outputs": [
        {
          "internalType": "uint256",
          "name": "debtRatio_",
          "type": "uint256"
        }
      ],
      "stateMutability": "view",
      "type": "function"
    },
    {
      "inputs": [
        {
          "internalType": "uint256",
          "name": "_amount",
          "type": "uint256"
        },
        {
          "internalType": "uint256",
          "name": "_maxPrice",
          "type": "uint256"
        },
        {
          "internalType": "address",
          "name": "_depositor",
          "type": "address"
        }
      ],
      "name": "deposit",
      "outputs": [
        {
          "internalType": "uint256",
          "name": "",
          "type": "uint256"
        }
      ],
      "stateMutability": "nonpayable",
      "type": "function"
    },
    {
      "inputs": [
        {
          "internalType": "uint256",
          "name": "_controlVariable",
          "type": "uint256"
        },
        {
          "internalType": "uint256",
          "name": "_vestingTerm",
          "type": "uint256"
        },
        {
          "internalType": "uint256",
          "name": "_minimumPrice",
          "type": "uint256"
        },
        {
          "internalType": "uint256",
          "name": "_maxPayout",
          "type": "uint256"
        },
        {
          "internalType": "uint256",
          "name": "_fee",
          "type": "uint256"
        },
        {
          "internalType": "uint256",
          "name": "_maxDebt",
          "type": "uint256"
        },
        {
          "internalType": "uint256",
          "name": "_initialDebt",
          "type": "uint256"
        }
      ],
      "name": "initializeBondTerms",
      "outputs": [],
      "stateMutability": "nonpayable",
      "type": "function"
    },
    {
      "inputs": [],
      "name": "isLiquidityBond",
      "outputs": [
        {
          "internalType": "bool",
          "name": "",
          "type": "bool"
        }
      ],
      "stateMutability": "view",
      "type": "function"
    },
    {
      "inputs": [],
      "name": "lastDecay",
      "outputs": [
        {
          "internalType": "uint256",
          "name": "",
          "type": "uint256"
        }
      ],
      "stateMutability": "view",
      "type": "function"
    },
    {
      "inputs": [],
      "name": "maxPayout",
      "outputs": [
        {
          "internalType": "uint256",
          "name": "",
          "type": "uint256"
        }
      ],
      "stateMutability": "view",
      "type": "function"
    },
    {
      "inputs": [],
      "name": "owner",
      "outputs": [
        {
          "internalType": "address",
          "name": "",
          "type": "address"
        }
      ],
      "stateMutability": "view",
      "type": "function"
    },
    {
      "inputs": [
        {
          "internalType": "uint256",
          "name": "_value",
          "type": "uint256"
        }
      ],
      "name": "payoutFor",
      "outputs": [
        {
          "internalType": "uint256",
          "name": "",
          "type": "uint256"
        }
      ],
      "stateMutability": "view",
      "type": "function"
    },
    {
      "inputs": [
        {
          "internalType": "address",
          "name": "_depositor",
          "type": "address"
        }
      ],
      "name": "pendingPayoutFor",
      "outputs": [
        {
          "internalType": "uint256",
          "name": "pendingPayout_",
          "type": "uint256"
        }
      ],
      "stateMutability": "view",
      "type": "function"
    },
    {
      "inputs": [
        {
          "internalType": "address",
          "name": "_depositor",
          "type": "address"
        }
      ],
      "name": "percentVestedFor",
      "outputs": [
        {
          "internalType": "uint256",
          "name": "percentVested_",
          "type": "uint256"
        }
      ],
      "stateMutability": "view",
      "type": "function"
    },
    {
      "inputs": [],
      "name": "principle",
      "outputs": [
        {
          "internalType": "address",
          "name": "",
          "type": "address"
        }
      ],
      "stateMutability": "view",
      "type": "function"
    },
    {
      "inputs": [],
      "name": "pullManagement",
      "outputs": [],
      "stateMutability": "nonpayable",
      "type": "function"
    },
    {
      "inputs": [
        {
          "internalType": "address",
          "name": "newOwner_",
          "type": "address"
        }
      ],
      "name": "pushManagement",
      "outputs": [],
      "stateMutability": "nonpayable",
      "type": "function"
    },
    {
      "inputs": [
        {
          "internalType": "address",
          "name": "_token",
          "type": "address"
        }
      ],
      "name": "recoverLostToken",
      "outputs": [
        {
          "internalType": "bool",
          "name": "",
          "type": "bool"
        }
      ],
      "stateMutability": "nonpayable",
      "type": "function"
    },
    {
      "inputs": [
        {
          "internalType": "address",
          "name": "_recipient",
          "type": "address"
        },
        {
          "internalType": "bool",
          "name": "_stake",
          "type": "bool"
        }
      ],
      "name": "redeem",
      "outputs": [
        {
          "internalType": "uint256",
          "name": "",
          "type": "uint256"
        }
      ],
      "stateMutability": "nonpayable",
      "type": "function"
    },
    {
      "inputs": [],
      "name": "renounceManagement",
      "outputs": [],
      "stateMutability": "nonpayable",
      "type": "function"
    },
    {
      "inputs": [
        {
          "internalType": "bool",
          "name": "_addition",
          "type": "bool"
        },
        {
          "internalType": "uint256",
          "name": "_increment",
          "type": "uint256"
        },
        {
          "internalType": "uint256",
          "name": "_target",
          "type": "uint256"
        },
        {
          "internalType": "uint256",
          "name": "_buffer",
          "type": "uint256"
        }
      ],
      "name": "setAdjustment",
      "outputs": [],
      "stateMutability": "nonpayable",
      "type": "function"
    },
    {
      "inputs": [
        {
          "internalType": "enum OtterBondDepository.PARAMETER",
          "name": "_parameter",
          "type": "uint8"
        },
        {
          "internalType": "uint256",
          "name": "_input",
          "type": "uint256"
        }
      ],
      "name": "setBondTerms",
      "outputs": [],
      "stateMutability": "nonpayable",
      "type": "function"
    },
    {
      "inputs": [
        {
          "internalType": "address",
          "name": "_staking",
          "type": "address"
        },
        {
          "internalType": "bool",
          "name": "_helper",
          "type": "bool"
        }
      ],
      "name": "setStaking",
      "outputs": [],
      "stateMutability": "nonpayable",
      "type": "function"
    },
    {
      "inputs": [],
      "name": "staking",
      "outputs": [
        {
          "internalType": "address",
          "name": "",
          "type": "address"
        }
      ],
      "stateMutability": "view",
      "type": "function"
    },
    {
      "inputs": [],
      "name": "stakingHelper",
      "outputs": [
        {
          "internalType": "address",
          "name": "",
          "type": "address"
        }
      ],
      "stateMutability": "view",
      "type": "function"
    },
    {
      "inputs": [],
      "name": "standardizedDebtRatio",
      "outputs": [
        {
          "internalType": "uint256",
          "name": "",
          "type": "uint256"
        }
      ],
      "stateMutability": "view",
      "type": "function"
    },
    {
      "inputs": [],
      "name": "terms",
      "outputs": [
        {
          "internalType": "uint256",
          "name": "controlVariable",
          "type": "uint256"
        },
        {
          "internalType": "uint256",
          "name": "vestingTerm",
          "type": "uint256"
        },
        {
          "internalType": "uint256",
          "name": "minimumPrice",
          "type": "uint256"
        },
        {
          "internalType": "uint256",
          "name": "maxPayout",
          "type": "uint256"
        },
        {
          "internalType": "uint256",
          "name": "fee",
          "type": "uint256"
        },
        {
          "internalType": "uint256",
          "name": "maxDebt",
          "type": "uint256"
        }
      ],
      "stateMutability": "view",
      "type": "function"
    },
    {
      "inputs": [],
      "name": "totalDebt",
      "outputs": [
        {
          "internalType": "uint256",
          "name": "",
          "type": "uint256"
        }
      ],
      "stateMutability": "view",
      "type": "function"
    },
    {
      "inputs": [],
      "name": "treasury",
      "outputs": [
        {
          "internalType": "address",
          "name": "",
          "type": "address"
        }
      ],
      "stateMutability": "view",
      "type": "function"
    },
    {
      "inputs": [],
      "name": "useHelper",
      "outputs": [
        {
          "internalType": "bool",
          "name": "",
          "type": "bool"
        }
      ],
      "stateMutability": "view",
      "type": "function"
    }
  ],
  "bytecode": "0x6101406040523480156200001257600080fd5b506040516200466838038062004668833981810160405260a08110156200003857600080fd5b810190808051906020019092919080519060200190929190805190602001909291908051906020019092919080519060200190929190505050336000806101000a81548173ffffffffffffffffffffffffffffffffffffffff021916908373ffffffffffffffffffffffffffffffffffffffff16021790555060008054906101000a900473ffffffffffffffffffffffffffffffffffffffff1673ffffffffffffffffffffffffffffffffffffffff16600073ffffffffffffffffffffffffffffffffffffffff167fea8258f2d9ddb679928cf34b78cf645b7feda9acc828e4dd82d014eaae270eba60405160405180910390a3600073ffffffffffffffffffffffffffffffffffffffff168573ffffffffffffffffffffffffffffffffffffffff1614156200016757600080fd5b8473ffffffffffffffffffffffffffffffffffffffff1660808173ffffffffffffffffffffffffffffffffffffffff1660601b81525050600073ffffffffffffffffffffffffffffffffffffffff168473ffffffffffffffffffffffffffffffffffffffff161415620001d957600080fd5b8373ffffffffffffffffffffffffffffffffffffffff1660a08173ffffffffffffffffffffffffffffffffffffffff1660601b81525050600073ffffffffffffffffffffffffffffffffffffffff168373ffffffffffffffffffffffffffffffffffffffff1614156200024b57600080fd5b8273ffffffffffffffffffffffffffffffffffffffff1660c08173ffffffffffffffffffffffffffffffffffffffff1660601b81525050600073ffffffffffffffffffffffffffffffffffffffff168273ffffffffffffffffffffffffffffffffffffffff161415620002bd57600080fd5b8173ffffffffffffffffffffffffffffffffffffffff1660e08173ffffffffffffffffffffffffffffffffffffffff1660601b815250508073ffffffffffffffffffffffffffffffffffffffff166101208173ffffffffffffffffffffffffffffffffffffffff1660601b81525050600073ffffffffffffffffffffffffffffffffffffffff168173ffffffffffffffffffffffffffffffffffffffff161415151561010081151560f81b81525050505050505060805160601c60a05160601c60c05160601c60e05160601c6101005160f81c6101205160601c6142236200044560003980611b3252806125a652806128b2525080611b0452806125755280612be852508061235e52806126c1528061279c5250806118995280611edd52806121ad528061225e5250806109a75280611b6e5280611c475280611f19528061212a5280612171528061229b52806125e2528061274052508061238052806126e7528061288e52806129095280612c855280612e865280612f6d528061310c52506142236000f3fe608060405234801561001057600080fd5b50600436106102115760003560e01c8063844b5c7c11610125578063cea55f57116100ad578063d7ccfb0b1161007c578063d7ccfb0b1461090f578063e0176de81461092d578063e392a2621461094b578063f5c2ab5b14610969578063fc7b9c181461098757610211565b8063cea55f5714610840578063d4d863ce1461085e578063d5025625146108ae578063d7969060146108ef57610211565b806398fabd3a116100f457806398fabd3a146106dd578063b4abccba14610711578063c4b9cd461461076b578063c5332b7c1461079f578063cd1234b3146107d357610211565b8063844b5c7c146106015780638da5cb5b1461061f5780638dbdbe6d14610653578063904b3ece146106bf57610211565b806346f68ee9116101a857806361d027b31161017757806361d027b3146104cf5780637153500814610503578063759076e51461056d57806377b818951461058b5780637927ebf8146105bf57610211565b806346f68ee9146103f55780634cf088d914610439578063507930ec1461046d5780635a96ac0a146104c557610211565b80631e321a0f116101e45780631e321a0f146102fa5780631feed31f146103355780632f3f470a14610399578063451ee4a1146103b957610211565b8063016a42841461021657806301b88ee81461024a578063089208d8146102a25780631a3d0068146102ac575b600080fd5b61021e6109a5565b604051808273ffffffffffffffffffffffffffffffffffffffff16815260200191505060405180910390f35b61028c6004803603602081101561026057600080fd5b81019080803573ffffffffffffffffffffffffffffffffffffffff1690602001909291905050506109c9565b6040518082815260200191505060405180910390f35b6102aa610a60565b005b6102f8600480360360808110156102c257600080fd5b81019080803515159060200190929190803590602001909291908035906020019092919080359060200190929190505050610bdf565b005b6103336004803603604081101561031057600080fd5b81019080803560ff16906020019092919080359060200190929190505050610dbe565b005b6103836004803603604081101561034b57600080fd5b81019080803573ffffffffffffffffffffffffffffffffffffffff169060200190929190803515159060200190929190505050611084565b6040518082815260200191505060405180910390f35b6103a161139c565b60405180821515815260200191505060405180910390f35b6103c16113af565b6040518086151581526020018581526020018481526020018381526020018281526020019550505050505060405180910390f35b6104376004803603602081101561040b57600080fd5b81019080803573ffffffffffffffffffffffffffffffffffffffff1690602001909291905050506113e0565b005b6104416115e5565b604051808273ffffffffffffffffffffffffffffffffffffffff16815260200191505060405180910390f35b6104af6004803603602081101561048357600080fd5b81019080803573ffffffffffffffffffffffffffffffffffffffff16906020019092919050505061160b565b6040518082815260200191505060405180910390f35b6104cd6116f1565b005b6104d7611897565b604051808273ffffffffffffffffffffffffffffffffffffffff16815260200191505060405180910390f35b61056b600480360360e081101561051957600080fd5b81019080803590602001909291908035906020019092919080359060200190929190803590602001909291908035906020019092919080359060200190929190803590602001909291905050506118bb565b005b610575611a7c565b6040518082815260200191505060405180910390f35b610593611a9f565b604051808273ffffffffffffffffffffffffffffffffffffffff16815260200191505060405180910390f35b6105eb600480360360208110156105d557600080fd5b8101908080359060200190929190505050611ac5565b6040518082815260200191505060405180910390f35b610609611b00565b6040518082815260200191505060405180910390f35b610627611d16565b604051808273ffffffffffffffffffffffffffffffffffffffff16815260200191505060405180910390f35b6106a96004803603606081101561066957600080fd5b810190808035906020019092919080359060200190929190803573ffffffffffffffffffffffffffffffffffffffff169060200190929190505050611d3f565b6040518082815260200191505060405180910390f35b6106c7612571565b6040518082815260200191505060405180910390f35b6106e56126bf565b604051808273ffffffffffffffffffffffffffffffffffffffff16815260200191505060405180910390f35b6107536004803603602081101561072757600080fd5b81019080803573ffffffffffffffffffffffffffffffffffffffff1690602001909291905050506126e3565b60405180821515815260200191505060405180910390f35b61077361288c565b604051808273ffffffffffffffffffffffffffffffffffffffff16815260200191505060405180910390f35b6107a76128b0565b604051808273ffffffffffffffffffffffffffffffffffffffff16815260200191505060405180910390f35b610815600480360360208110156107e957600080fd5b81019080803573ffffffffffffffffffffffffffffffffffffffff1690602001909291905050506128d4565b6040518085815260200184815260200183815260200182815260200194505050505060405180910390f35b610848612904565b6040518082815260200191505060405180910390f35b6108ac6004803603604081101561087457600080fd5b81019080803573ffffffffffffffffffffffffffffffffffffffff1690602001909291908035151590602001909291905050506129f9565b005b6108b6612bbc565b60405180878152602001868152602001858152602001848152602001838152602001828152602001965050505050505060405180910390f35b6108f7612be6565b60405180821515815260200191505060405180910390f35b610917612c0a565b6040518082815260200191505060405180910390f35b610935612c71565b6040518082815260200191505060405180910390f35b610953612d45565b6040518082815260200191505060405180910390f35b610971612da1565b6040518082815260200191505060405180910390f35b61098f612da7565b6040518082815260200191505060405180910390f35b7f000000000000000000000000000000000000000000000000000000000000000081565b6000806109d58361160b565b90506000600f60008573ffffffffffffffffffffffffffffffffffffffff1673ffffffffffffffffffffffffffffffffffffffff1681526020019081526020016000206000015490506127108210610a2f57809250610a59565b610a56612710610a488484612dad90919063ffffffff16565b612e3390919063ffffffff16565b92505b5050919050565b3373ffffffffffffffffffffffffffffffffffffffff1660008054906101000a900473ffffffffffffffffffffffffffffffffffffffff1673ffffffffffffffffffffffffffffffffffffffff1614610b21576040517f08c379a00000000000000000000000000000000000000000000000000000000081526004018080602001828103825260208152602001807f4f776e61626c653a2063616c6c6572206973206e6f7420746865206f776e657281525060200191505060405180910390fd5b600073ffffffffffffffffffffffffffffffffffffffff1660008054906101000a900473ffffffffffffffffffffffffffffffffffffffff1673ffffffffffffffffffffffffffffffffffffffff167fea8258f2d9ddb679928cf34b78cf645b7feda9acc828e4dd82d014eaae270eba60405160405180910390a360008060006101000a81548173ffffffffffffffffffffffffffffffffffffffff021916908373ffffffffffffffffffffffffffffffffffffffff160217905550565b3373ffffffffffffffffffffffffffffffffffffffff1660008054906101000a900473ffffffffffffffffffffffffffffffffffffffff1673ffffffffffffffffffffffffffffffffffffffff1614610ca0576040517f08c379a00000000000000000000000000000000000000000000000000000000081526004018080602001828103825260208152602001807f4f776e61626c653a2063616c6c6572206973206e6f7420746865206f776e657281525060200191505060405180910390fd5b610ccd6103e8610cbf6019600460000154612dad90919063ffffffff16565b612e3390919063ffffffff16565b831115610d42576040517f08c379a00000000000000000000000000000000000000000000000000000000081526004018080602001828103825260138152602001807f496e6372656d656e7420746f6f206c617267650000000000000000000000000081525060200191505060405180910390fd5b6040518060a00160405280851515815260200184815260200183815260200182815260200142815250600a60008201518160000160006101000a81548160ff0219169083151502179055506020820151816001015560408201518160020155606082015181600301556080820151816004015590505050505050565b3373ffffffffffffffffffffffffffffffffffffffff1660008054906101000a900473ffffffffffffffffffffffffffffffffffffffff1673ffffffffffffffffffffffffffffffffffffffff1614610e7f576040517f08c379a00000000000000000000000000000000000000000000000000000000081526004018080602001828103825260208152602001807f4f776e61626c653a2063616c6c6572206973206e6f7420746865206f776e657281525060200191505060405180910390fd5b60006003811115610e8c57fe5b826003811115610e9857fe5b1415610f09576201fa40811015610efa576040517f08c379a00000000000000000000000000000000000000000000000000000000081526004018080602001828103825260248152602001806141a06024913960400191505060405180910390fd5b80600460010181905550611080565b60016003811115610f1657fe5b826003811115610f2257fe5b1415610faf576103e8811115610fa0576040517f08c379a00000000000000000000000000000000000000000000000000000000081526004018080602001828103825260208152602001807f5061796f75742063616e6e6f742062652061626f766520312070657263656e7481525060200191505060405180910390fd5b8060046003018190555061107f565b60026003811115610fbc57fe5b826003811115610fc857fe5b141561105457612710811115611046576040517f08c379a000000000000000000000000000000000000000000000000000000000815260040180806020018281038252601c8152602001807f44414f206665652063616e6e6f7420657863656564207061796f75740000000081525060200191505060405180910390fd5b80600480018190555061107e565b60038081111561106057fe5b82600381111561106c57fe5b141561107d57806004600501819055505b5b5b5b5050565b600061108e614094565b600f60008573ffffffffffffffffffffffffffffffffffffffff1673ffffffffffffffffffffffffffffffffffffffff1681526020019081526020016000206040518060800160405290816000820154815260200160018201548152602001600282015481526020016003820154815250509050600061110d8561160b565b905061271081106111ed57600f60008673ffffffffffffffffffffffffffffffffffffffff1673ffffffffffffffffffffffffffffffffffffffff16815260200190815260200160002060008082016000905560018201600090556002820160009055600382016000905550508473ffffffffffffffffffffffffffffffffffffffff167f51c99f515c87b0d95ba97f616edd182e8f161c4932eac17c6fefe9dab58b77b183600001516000604051808381526020018281526020019250505060405180910390a26111e485858460000151612e7d565b92505050611396565b600061121a61271061120c848660000151612dad90919063ffffffff16565b612e3390919063ffffffff16565b9050604051806080016040528061123e8386600001516132d490919063ffffffff16565b815260200161127061125d8660400151426132d490919063ffffffff16565b86602001516132d490919063ffffffff16565b81526020014281526020018460600151815250600f60008873ffffffffffffffffffffffffffffffffffffffff1673ffffffffffffffffffffffffffffffffffffffff168152602001908152602001600020600082015181600001556020820151816001015560408201518160020155606082015181600301559050508573ffffffffffffffffffffffffffffffffffffffff167f51c99f515c87b0d95ba97f616edd182e8f161c4932eac17c6fefe9dab58b77b182600f60008a73ffffffffffffffffffffffffffffffffffffffff1673ffffffffffffffffffffffffffffffffffffffff16815260200190815260200160002060000154604051808381526020018281526020019250505060405180910390a2611390868683612e7d565b93505050505b92915050565b600360149054906101000a900460ff1681565b600a8060000160009054906101000a900460ff16908060010154908060020154908060030154908060040154905085565b3373ffffffffffffffffffffffffffffffffffffffff1660008054906101000a900473ffffffffffffffffffffffffffffffffffffffff1673ffffffffffffffffffffffffffffffffffffffff16146114a1576040517f08c379a00000000000000000000000000000000000000000000000000000000081526004018080602001828103825260208152602001807f4f776e61626c653a2063616c6c6572206973206e6f7420746865206f776e657281525060200191505060405180910390fd5b600073ffffffffffffffffffffffffffffffffffffffff168173ffffffffffffffffffffffffffffffffffffffff161415611527576040517f08c379a00000000000000000000000000000000000000000000000000000000081526004018080602001828103825260268152602001806140ee6026913960400191505060405180910390fd5b8073ffffffffffffffffffffffffffffffffffffffff1660008054906101000a900473ffffffffffffffffffffffffffffffffffffffff1673ffffffffffffffffffffffffffffffffffffffff167fea8258f2d9ddb679928cf34b78cf645b7feda9acc828e4dd82d014eaae270eba60405160405180910390a380600160006101000a81548173ffffffffffffffffffffffffffffffffffffffff021916908373ffffffffffffffffffffffffffffffffffffffff16021790555050565b600260009054906101000a900473ffffffffffffffffffffffffffffffffffffffff1681565b6000611615614094565b600f60008473ffffffffffffffffffffffffffffffffffffffff1673ffffffffffffffffffffffffffffffffffffffff168152602001908152602001600020604051806080016040529081600082015481526020016001820154815260200160028201548152602001600382015481525050905060006116a28260400151426132d490919063ffffffff16565b905060008260200151905060008111156116e4576116dd816116cf61271085612dad90919063ffffffff16565b612e3390919063ffffffff16565b93506116e9565b600093505b505050919050565b600160009054906101000a900473ffffffffffffffffffffffffffffffffffffffff1673ffffffffffffffffffffffffffffffffffffffff163373ffffffffffffffffffffffffffffffffffffffff1614611797576040517f08c379a00000000000000000000000000000000000000000000000000000000081526004018080602001828103825260228152602001806141146022913960400191505060405180910390fd5b600160009054906101000a900473ffffffffffffffffffffffffffffffffffffffff1673ffffffffffffffffffffffffffffffffffffffff1660008054906101000a900473ffffffffffffffffffffffffffffffffffffffff1673ffffffffffffffffffffffffffffffffffffffff167faa151555690c956fc3ea32f106bb9f119b5237a061eaa8557cff3e51e3792c8d60405160405180910390a3600160009054906101000a900473ffffffffffffffffffffffffffffffffffffffff166000806101000a81548173ffffffffffffffffffffffffffffffffffffffff021916908373ffffffffffffffffffffffffffffffffffffffff160217905550565b7f000000000000000000000000000000000000000000000000000000000000000081565b3373ffffffffffffffffffffffffffffffffffffffff1660008054906101000a900473ffffffffffffffffffffffffffffffffffffffff1673ffffffffffffffffffffffffffffffffffffffff161461197c576040517f08c379a00000000000000000000000000000000000000000000000000000000081526004018080602001828103825260208152602001807f4f776e61626c653a2063616c6c6572206973206e6f7420746865206f776e657281525060200191505060405180910390fd5b6000600460000154146119f7576040517f08c379a00000000000000000000000000000000000000000000000000000000081526004018080602001828103825260208152602001807f426f6e6473206d75737420626520696e697469616c697a65642066726f6d203081525060200191505060405180910390fd5b6040518060c00160405280888152602001878152602001868152602001858152602001848152602001838152506004600082015181600001556020820151816001015560408201518160020155606082015181600301556080820151816004015560a08201518160050155905050806010819055504260118190555050505050505050565b6000611a9a611a89612d45565b6010546132d490919063ffffffff16565b905090565b600360009054906101000a900473ffffffffffffffffffffffffffffffffffffffff1681565b6000611af9662386f26fc10000611aeb611ae685611ae1612c0a565b61331e565b6135ff565b612e3390919063ffffffff16565b9050919050565b60007f000000000000000000000000000000000000000000000000000000000000000015611c3d57611c366064611c287f000000000000000000000000000000000000000000000000000000000000000073ffffffffffffffffffffffffffffffffffffffff166332da80a37f00000000000000000000000000000000000000000000000000000000000000006040518263ffffffff1660e01b8152600401808273ffffffffffffffffffffffffffffffffffffffff16815260200191505060206040518083038186803b158015611bd757600080fd5b505afa158015611beb573d6000803e3d6000fd5b505050506040513d6020811015611c0157600080fd5b8101908080519060200190929190505050611c1a612c0a565b612dad90919063ffffffff16565b612e3390919063ffffffff16565b9050611d13565b611d106064611d027f000000000000000000000000000000000000000000000000000000000000000073ffffffffffffffffffffffffffffffffffffffff1663313ce5676040518163ffffffff1660e01b815260040160206040518083038186803b158015611cab57600080fd5b505afa158015611cbf573d6000803e3d6000fd5b505050506040513d6020811015611cd557600080fd5b810190808051906020019092919050505060ff16600a0a611cf4612c0a565b612dad90919063ffffffff16565b612e3390919063ffffffff16565b90505b90565b60008060009054906101000a900473ffffffffffffffffffffffffffffffffffffffff16905090565b60008073ffffffffffffffffffffffffffffffffffffffff168273ffffffffffffffffffffffffffffffffffffffff161415611de3576040517f08c379a000000000000000000000000000000000000000000000000000000000815260040180806020018281038252600f8152602001807f496e76616c69642061646472657373000000000000000000000000000000000081525060200191505060405180910390fd5b611deb61363b565b6004600501546010541115611e68576040517f08c379a00000000000000000000000000000000000000000000000000000000081526004018080602001828103825260148152602001807f4d6178206361706163697479207265616368656400000000000000000000000081525060200191505060405180910390fd5b6000611e72611b00565b90506000611e7e613666565b905080851015611ed9576040517f08c379a000000000000000000000000000000000000000000000000000000000815260040180806020018281038252602381526020018061417d6023913960400191505060405180910390fd5b60007f000000000000000000000000000000000000000000000000000000000000000073ffffffffffffffffffffffffffffffffffffffff1663d1b317e57f0000000000000000000000000000000000000000000000000000000000000000896040518363ffffffff1660e01b8152600401808373ffffffffffffffffffffffffffffffffffffffff1681526020018281526020019250505060206040518083038186803b158015611f8a57600080fd5b505afa158015611f9e573d6000803e3d6000fd5b505050506040513d6020811015611fb457600080fd5b810190808051906020019092919050505090506000611fd282611ac5565b90506298968081101561204d576040517f08c379a000000000000000000000000000000000000000000000000000000000815260040180806020018281038252600e8152602001807f426f6e6420746f6f20736d616c6c00000000000000000000000000000000000081525060200191505060405180910390fd5b612055612c71565b8111156120ca576040517f08c379a000000000000000000000000000000000000000000000000000000000815260040180806020018281038252600e8152602001807f426f6e6420746f6f206c6172676500000000000000000000000000000000000081525060200191505060405180910390fd5b60006120f76127106120e9600480015485612dad90919063ffffffff16565b612e3390919063ffffffff16565b905060006121208261211285876132d490919063ffffffff16565b6132d490919063ffffffff16565b905061216f33308c7f000000000000000000000000000000000000000000000000000000000000000073ffffffffffffffffffffffffffffffffffffffff166136eb909392919063ffffffff16565b7f000000000000000000000000000000000000000000000000000000000000000073ffffffffffffffffffffffffffffffffffffffff1663095ea7b37f00000000000000000000000000000000000000000000000000000000000000008c6040518363ffffffff1660e01b8152600401808373ffffffffffffffffffffffffffffffffffffffff16815260200182815260200192505050602060405180830381600087803b15801561222057600080fd5b505af1158015612234573d6000803e3d6000fd5b505050506040513d602081101561224a57600080fd5b8101908080519060200190929190505050507f000000000000000000000000000000000000000000000000000000000000000073ffffffffffffffffffffffffffffffffffffffff1663bc157ac18b7f0000000000000000000000000000000000000000000000000000000000000000846040518463ffffffff1660e01b8152600401808481526020018373ffffffffffffffffffffffffffffffffffffffff1681526020018281526020019350505050602060405180830381600087803b15801561231557600080fd5b505af1158015612329573d6000803e3d6000fd5b505050506040513d602081101561233f57600080fd5b810190808051906020019092919050505050600082146123c5576123c47f0000000000000000000000000000000000000000000000000000000000000000837f000000000000000000000000000000000000000000000000000000000000000073ffffffffffffffffffffffffffffffffffffffff166137ac9092919063ffffffff16565b5b6123da8460105461384e90919063ffffffff16565b601081905550604051806080016040528061244085600f60008d73ffffffffffffffffffffffffffffffffffffffff1673ffffffffffffffffffffffffffffffffffffffff1681526020019081526020016000206000015461384e90919063ffffffff16565b8152602001600460010154815260200142815260200187815250600f60008a73ffffffffffffffffffffffffffffffffffffffff1673ffffffffffffffffffffffffffffffffffffffff16815260200190815260200160002060008201518160000155602082015181600101556040820151816002015560608201518160030155905050856124dd6004600101544261384e90919063ffffffff16565b847f1fec6dc81f140574bf43f6b1e420ae1dd47928b9d57db8cbd7b8611063b85ae58d6040518082815260200191505060405180910390a461251d612904565b612525613666565b61252d611b00565b7f375b221f40939bfd8f49723a17cf7bc6d576ebf72efe2cc3e991826f5b3f390a60405160405180910390a46125616138d6565b8296505050505050509392505050565b60007f0000000000000000000000000000000000000000000000000000000000000000156126b1576126aa633b9aca0061269c7f000000000000000000000000000000000000000000000000000000000000000073ffffffffffffffffffffffffffffffffffffffff166332da80a37f00000000000000000000000000000000000000000000000000000000000000006040518263ffffffff1660e01b8152600401808273ffffffffffffffffffffffffffffffffffffffff16815260200191505060206040518083038186803b15801561264b57600080fd5b505afa15801561265f573d6000803e3d6000fd5b505050506040513d602081101561267557600080fd5b810190808051906020019092919050505061268e612904565b612dad90919063ffffffff16565b612e3390919063ffffffff16565b90506126bc565b6126b9612904565b90505b90565b7f000000000000000000000000000000000000000000000000000000000000000081565b60007f000000000000000000000000000000000000000000000000000000000000000073ffffffffffffffffffffffffffffffffffffffff168273ffffffffffffffffffffffffffffffffffffffff16141561273e57600080fd5b7f000000000000000000000000000000000000000000000000000000000000000073ffffffffffffffffffffffffffffffffffffffff168273ffffffffffffffffffffffffffffffffffffffff16141561279757600080fd5b6128837f00000000000000000000000000000000000000000000000000000000000000008373ffffffffffffffffffffffffffffffffffffffff166370a08231306040518263ffffffff1660e01b8152600401808273ffffffffffffffffffffffffffffffffffffffff16815260200191505060206040518083038186803b15801561282257600080fd5b505afa158015612836573d6000803e3d6000fd5b505050506040513d602081101561284c57600080fd5b81019080805190602001909291905050508473ffffffffffffffffffffffffffffffffffffffff166137ac9092919063ffffffff16565b60019050919050565b7f000000000000000000000000000000000000000000000000000000000000000081565b7f000000000000000000000000000000000000000000000000000000000000000081565b600f6020528060005260406000206000915090508060000154908060010154908060020154908060030154905084565b6000807f000000000000000000000000000000000000000000000000000000000000000073ffffffffffffffffffffffffffffffffffffffff166318160ddd6040518163ffffffff1660e01b815260040160206040518083038186803b15801561296d57600080fd5b505afa158015612981573d6000803e3d6000fd5b505050506040513d602081101561299757600080fd5b810190808051906020019092919050505090506129f3670de0b6b3a76400006129e56129e06129da633b9aca006129cc611a7c565b612dad90919063ffffffff16565b8561331e565b6135ff565b612e3390919063ffffffff16565b91505090565b3373ffffffffffffffffffffffffffffffffffffffff1660008054906101000a900473ffffffffffffffffffffffffffffffffffffffff1673ffffffffffffffffffffffffffffffffffffffff1614612aba576040517f08c379a00000000000000000000000000000000000000000000000000000000081526004018080602001828103825260208152602001807f4f776e61626c653a2063616c6c6572206973206e6f7420746865206f776e657281525060200191505060405180910390fd5b600073ffffffffffffffffffffffffffffffffffffffff168273ffffffffffffffffffffffffffffffffffffffff161415612af457600080fd5b8015612b5b576001600360146101000a81548160ff02191690831515021790555081600360006101000a81548173ffffffffffffffffffffffffffffffffffffffff021916908373ffffffffffffffffffffffffffffffffffffffff160217905550612bb8565b6000600360146101000a81548160ff02191690831515021790555081600260006101000a81548173ffffffffffffffffffffffffffffffffffffffff021916908373ffffffffffffffffffffffffffffffffffffffff1602179055505b5050565b60048060000154908060010154908060020154908060030154908060040154908060050154905086565b7f000000000000000000000000000000000000000000000000000000000000000081565b6000612c5662989680612c48633b9aca00612c3a612c26612904565b600460000154612dad90919063ffffffff16565b61384e90919063ffffffff16565b612e3390919063ffffffff16565b9050600460020154811015612c6e5760046002015490505b90565b6000612d40620186a0612d326004600301547f000000000000000000000000000000000000000000000000000000000000000073ffffffffffffffffffffffffffffffffffffffff166318160ddd6040518163ffffffff1660e01b815260040160206040518083038186803b158015612ce957600080fd5b505afa158015612cfd573d6000803e3d6000fd5b505050506040513d6020811015612d1357600080fd5b8101908080519060200190929190505050612dad90919063ffffffff16565b612e3390919063ffffffff16565b905090565b600080612d5d601154426132d490919063ffffffff16565b9050612d8b600460010154612d7d83601054612dad90919063ffffffff16565b612e3390919063ffffffff16565b9150601054821115612d9d5760105491505b5090565b60115481565b60105481565b600080831415612dc05760009050612e2d565b6000828402905082848281612dd157fe5b0414612e28576040517f08c379a000000000000000000000000000000000000000000000000000000000815260040180806020018281038252602181526020018061415c6021913960400191505060405180910390fd5b809150505b92915050565b6000612e7583836040518060400160405280601a81526020017f536166654d6174683a206469766973696f6e206279207a65726f000000000000815250613a3c565b905092915050565b600082612f56577f000000000000000000000000000000000000000000000000000000000000000073ffffffffffffffffffffffffffffffffffffffff1663a9059cbb85846040518363ffffffff1660e01b8152600401808373ffffffffffffffffffffffffffffffffffffffff16815260200182815260200192505050602060405180830381600087803b158015612f1557600080fd5b505af1158015612f29573d6000803e3d6000fd5b505050506040513d6020811015612f3f57600080fd5b8101908080519060200190929190505050506132ca565b600360149054906101000a900460ff161561310a577f000000000000000000000000000000000000000000000000000000000000000073ffffffffffffffffffffffffffffffffffffffff1663095ea7b3600360009054906101000a900473ffffffffffffffffffffffffffffffffffffffff16846040518363ffffffff1660e01b8152600401808373ffffffffffffffffffffffffffffffffffffffff16815260200182815260200192505050602060405180830381600087803b15801561301e57600080fd5b505af1158015613032573d6000803e3d6000fd5b505050506040513d602081101561304857600080fd5b810190808051906020019092919050505050600360009054906101000a900473ffffffffffffffffffffffffffffffffffffffff1673ffffffffffffffffffffffffffffffffffffffff16637acb775783866040518363ffffffff1660e01b8152600401808381526020018273ffffffffffffffffffffffffffffffffffffffff16815260200192505050600060405180830381600087803b1580156130ed57600080fd5b505af1158015613101573d6000803e3d6000fd5b505050506132c9565b7f000000000000000000000000000000000000000000000000000000000000000073ffffffffffffffffffffffffffffffffffffffff1663095ea7b3600260009054906101000a900473ffffffffffffffffffffffffffffffffffffffff16846040518363ffffffff1660e01b8152600401808373ffffffffffffffffffffffffffffffffffffffff16815260200182815260200192505050602060405180830381600087803b1580156131bd57600080fd5b505af11580156131d1573d6000803e3d6000fd5b505050506040513d60208110156131e757600080fd5b810190808051906020019092919050505050600260009054906101000a900473ffffffffffffffffffffffffffffffffffffffff1673ffffffffffffffffffffffffffffffffffffffff16637acb775783866040518363ffffffff1660e01b8152600401808381526020018273ffffffffffffffffffffffffffffffffffffffff16815260200192505050602060405180830381600087803b15801561328c57600080fd5b505af11580156132a0573d6000803e3d6000fd5b505050506040513d60208110156132b657600080fd5b8101908080519060200190929190505050505b5b8190509392505050565b600061331683836040518060400160405280601e81526020017f536166654d6174683a207375627472616374696f6e206f766572666c6f770000815250613b02565b905092915050565b6133266140bc565b6000821161337f576040517f08c379a00000000000000000000000000000000000000000000000000000000081526004018080602001828103825260268152602001806141366026913960400191505060405180910390fd5b60008314156133bd57604051806020016040528060007bffffffffffffffffffffffffffffffffffffffffffffffffffffffff1681525090506135f9565b7fffffffffffffffffffffffffffffffffffffffffffffffffffffffffffffffff71ffffffffffffffffffffffffffffffffffff1683116134f657600082607060ff1685901b8161340a57fe5b0490507fffffffffffffffffffffffffffffffffffffffffffffffffffffffffffffffff7bffffffffffffffffffffffffffffffffffffffffffffffffffffffff168111156134c1576040517f08c379a000000000000000000000000000000000000000000000000000000000815260040180806020018281038252601e8152602001807f4669786564506f696e743a3a6672616374696f6e3a206f766572666c6f77000081525060200191505060405180910390fd5b6040518060200160405280827bffffffffffffffffffffffffffffffffffffffffffffffffffffffff168152509150506135f9565b6000613512846e01000000000000000000000000000085613bc2565b90507fffffffffffffffffffffffffffffffffffffffffffffffffffffffffffffffff7bffffffffffffffffffffffffffffffffffffffffffffffffffffffff168111156135c8576040517f08c379a000000000000000000000000000000000000000000000000000000000815260040180806020018281038252601e8152602001807f4669786564506f696e743a3a6672616374696f6e3a206f766572666c6f77000081525060200191505060405180910390fd5b6040518060200160405280827bffffffffffffffffffffffffffffffffffffffffffffffffffffffff168152509150505b92915050565b60006612725dd1d243ab82600001517bffffffffffffffffffffffffffffffffffffffffffffffffffffffff168161363357fe5b049050919050565b613657613646612d45565b6010546132d490919063ffffffff16565b60108190555042601181905550565b60006136b2629896806136a4633b9aca00613696613682612904565b600460000154612dad90919063ffffffff16565b61384e90919063ffffffff16565b612e3390919063ffffffff16565b90506004600201548110156136ce5760046002015490506136e8565b6000600460020154146136e75760006004600201819055505b5b90565b6137a6846323b872dd60e01b858585604051602401808473ffffffffffffffffffffffffffffffffffffffff1681526020018373ffffffffffffffffffffffffffffffffffffffff1681526020018281526020019350505050604051602081830303815290604052907bffffffffffffffffffffffffffffffffffffffffffffffffffffffff19166020820180517bffffffffffffffffffffffffffffffffffffffffffffffffffffffff8381831617835250505050613c84565b50505050565b6138498363a9059cbb60e01b8484604051602401808373ffffffffffffffffffffffffffffffffffffffff16815260200182815260200192505050604051602081830303815290604052907bffffffffffffffffffffffffffffffffffffffffffffffffffffffff19166020820180517bffffffffffffffffffffffffffffffffffffffffffffffffffffffff8381831617835250505050613c84565b505050565b6000808284019050838110156138cc576040517f08c379a000000000000000000000000000000000000000000000000000000000815260040180806020018281038252601b8152602001807f536166654d6174683a206164646974696f6e206f766572666c6f77000000000081525060200191505060405180910390fd5b8091505092915050565b60006138f5600a60030154600a6004015461384e90919063ffffffff16565b90506000600a600101541415801561390d5750804210155b15613a395760006004600001549050600a60000160009054906101000a900460ff161561397c57613951600a6001015460046000015461384e90919063ffffffff16565b600460000181905550600a6002015460046000015410613977576000600a600101819055505b6139c0565b613999600a600101546004600001546132d490919063ffffffff16565b600460000181905550600a60020154600460000154116139bf576000600a600101819055505b5b42600a600401819055507fb923e581a0f83128e9e1d8297aa52b18d6744310476e0b54509c054cd7a93b2a81600460000154600a60010154600a60000160009054906101000a900460ff1660405180858152602001848152602001838152602001821515815260200194505050505060405180910390a1505b50565b60008083118290613ae8576040517f08c379a00000000000000000000000000000000000000000000000000000000081526004018080602001828103825283818151815260200191508051906020019080838360005b83811015613aad578082015181840152602081019050613a92565b50505050905090810190601f168015613ada5780820380516001836020036101000a031916815260200191505b509250505060405180910390fd5b506000838581613af457fe5b049050809150509392505050565b6000838311158290613baf576040517f08c379a00000000000000000000000000000000000000000000000000000000081526004018080602001828103825283818151815260200191508051906020019080838360005b83811015613b74578082015181840152602081019050613b59565b50505050905090810190601f168015613ba15780820380516001836020036101000a031916815260200191505b509250505060405180910390fd5b5060008385039050809150509392505050565b6000806000613bd18686613d73565b9150915060008480613bdf57fe5b868809905082811115613bf3576001820391505b8083039250848210613c6d576040517f08c379a000000000000000000000000000000000000000000000000000000000815260040180806020018281038252601a8152602001807f46756c6c4d6174683a3a6d756c4469763a206f766572666c6f7700000000000081525060200191505060405180910390fd5b613c78838387613dc6565b93505050509392505050565b6060613ce6826040518060400160405280602081526020017f5361666545524332303a206c6f772d6c6576656c2063616c6c206661696c65648152508573ffffffffffffffffffffffffffffffffffffffff16613e639092919063ffffffff16565b9050600081511115613d6e57808060200190516020811015613d0757600080fd5b8101908080519060200190929190505050613d6d576040517f08c379a000000000000000000000000000000000000000000000000000000000815260040180806020018281038252602a8152602001806141c4602a913960400191505060405180910390fd5b5b505050565b60008060007fffffffffffffffffffffffffffffffffffffffffffffffffffffffffffffffff80613da057fe5b84860990508385029250828103915082811015613dbe576001820391505b509250929050565b6000808260000383169050808381613dda57fe5b049250808581613de657fe5b0494506001818260000381613df757fe5b04018402850194506000600190508084026002038102905080840260020381029050808402600203810290508084026002038102905080840260020381029050808402600203810290508084026002038102905080840260020381029050808602925050509392505050565b6060613e728484600085613e7b565b90509392505050565b6060613e8685614081565b613ef8576040517f08c379a000000000000000000000000000000000000000000000000000000000815260040180806020018281038252601d8152602001807f416464726573733a2063616c6c20746f206e6f6e2d636f6e747261637400000081525060200191505060405180910390fd5b600060608673ffffffffffffffffffffffffffffffffffffffff1685876040518082805190602001908083835b60208310613f485780518252602082019150602081019050602083039250613f25565b6001836020036101000a03801982511681845116808217855250505050505090500191505060006040518083038185875af1925050503d8060008114613faa576040519150601f19603f3d011682016040523d82523d6000602084013e613faf565b606091505b50915091508115613fc4578092505050614079565b600081511115613fd75780518082602001fd5b836040517f08c379a00000000000000000000000000000000000000000000000000000000081526004018080602001828103825283818151815260200191508051906020019080838360005b8381101561403e578082015181840152602081019050614023565b50505050905090810190601f16801561406b5780820380516001836020036101000a031916815260200191505b509250505060405180910390fd5b949350505050565b600080823b905060008111915050919050565b6040518060800160405280600081526020016000815260200160008152602001600081525090565b604051806020016040528060007bffffffffffffffffffffffffffffffffffffffffffffffffffffffff168152509056fe4f776e61626c653a206e6577206f776e657220697320746865207a65726f20616464726573734f776e61626c653a206d757374206265206e6577206f776e657220746f2070756c6c4669786564506f696e743a3a6672616374696f6e3a206469766973696f6e206279207a65726f536166654d6174683a206d756c7469706c69636174696f6e206f766572666c6f77536c697070616765206c696d69743a206d6f7265207468616e206d617820707269636556657374696e67206d757374206265206c6f6e676572207468616e20333620686f7572735361666545524332303a204552433230206f7065726174696f6e20646964206e6f742073756363656564a2646970667358221220fcb9958576120074a74e73d1a6f1c9648bb168d9336ab16bdcdeffc23a61144164736f6c63430007050033",
  "linkReferences": {},
  "deployedLinkReferences": {}
}