{
  "_format": "hh-sol-artifact-1",
  "contractName": "ClamCirculatingSupply",
  "sourceName": "contracts/presale/ClamCirculatingSupply.sol",
  "abi": [
    {
      "inputs": [
        {
          "internalType": "address",
          "name": "_owner",
          "type": "address"
        }
      ],
      "stateMutability": "nonpayable",
      "type": "constructor"
    },
    {
      "inputs": [],
      "name": "CLAM",
      "outputs": [
        {
          "internalType": "address",
          "name": "",
          "type": "address"
        }
      ],
      "stateMutability": "view",
      "type": "function"
    },
    {
      "inputs": [],
      "name": "CLAMCirculatingSupply",
      "outputs": [
        {
          "internalType": "uint256",
          "name": "",
          "type": "uint256"
        }
      ],
      "stateMutability": "view",
      "type": "function"
    },
    {
      "inputs": [],
      "name": "getNonCirculatingCLAM",
      "outputs": [
        {
          "internalType": "uint256",
          "name": "",
          "type": "uint256"
        }
      ],
      "stateMutability": "view",
      "type": "function"
    },
    {
      "inputs": [
        {
          "internalType": "address",
          "name": "_clam",
          "type": "address"
        }
      ],
      "name": "initialize",
      "outputs": [
        {
          "internalType": "bool",
          "name": "",
          "type": "bool"
        }
      ],
      "stateMutability": "nonpayable",
      "type": "function"
    },
    {
      "inputs": [],
      "name": "isInitialized",
      "outputs": [
        {
          "internalType": "bool",
          "name": "",
          "type": "bool"
        }
      ],
      "stateMutability": "view",
      "type": "function"
    },
    {
      "inputs": [
        {
          "internalType": "uint256",
          "name": "",
          "type": "uint256"
        }
      ],
      "name": "nonCirculatingCLAMAddresses",
      "outputs": [
        {
          "internalType": "address",
          "name": "",
          "type": "address"
        }
      ],
      "stateMutability": "view",
      "type": "function"
    },
    {
      "inputs": [],
      "name": "owner",
      "outputs": [
        {
          "internalType": "address",
          "name": "",
          "type": "address"
        }
      ],
      "stateMutability": "view",
      "type": "function"
    },
    {
      "inputs": [
        {
          "internalType": "address[]",
          "name": "_nonCirculatingAddresses",
          "type": "address[]"
        }
      ],
      "name": "setNonCirculatingCLAMAddresses",
      "outputs": [
        {
          "internalType": "bool",
          "name": "",
          "type": "bool"
        }
      ],
      "stateMutability": "nonpayable",
      "type": "function"
    },
    {
      "inputs": [
        {
          "internalType": "address",
          "name": "_owner",
          "type": "address"
        }
      ],
      "name": "transferOwnership",
      "outputs": [
        {
          "internalType": "bool",
          "name": "",
          "type": "bool"
        }
      ],
      "stateMutability": "nonpayable",
      "type": "function"
    }
  ],
  "bytecode": "0x608060405234801561001057600080fd5b50604051610bf7380380610bf78339818101604052602081101561003357600080fd5b810190808051906020019092919050505080600160006101000a81548173ffffffffffffffffffffffffffffffffffffffff021916908373ffffffffffffffffffffffffffffffffffffffff16021790555050610b62806100956000396000f3fe608060405234801561001057600080fd5b50600436106100935760003560e01c806397c686b41161006657806397c686b414610162578063c4b9cd4614610180578063c4d66de8146101b4578063f2fde38b1461020e578063f7ac5d4e1461026857610093565b8063392e53cd146100985780635b72685a146100b85780638b29e3d1146101105780638da5cb5b1461012e575b600080fd5b6100a06102f7565b60405180821515815260200191505060405180910390f35b6100e4600480360360208110156100ce57600080fd5b8101908080359060200190929190505050610308565b604051808273ffffffffffffffffffffffffffffffffffffffff16815260200191505060405180910390f35b610118610347565b6040518082815260200191505060405180910390f35b61013661048c565b604051808273ffffffffffffffffffffffffffffffffffffffff16815260200191505060405180910390f35b61016a6104b2565b6040518082815260200191505060405180910390f35b610188610580565b604051808273ffffffffffffffffffffffffffffffffffffffff16815260200191505060405180910390f35b6101f6600480360360208110156101ca57600080fd5b81019080803573ffffffffffffffffffffffffffffffffffffffff1690602001909291905050506105a6565b60405180821515815260200191505060405180910390f35b6102506004803603602081101561022457600080fd5b81019080803573ffffffffffffffffffffffffffffffffffffffff1690602001909291905050506106ed565b60405180821515815260200191505060405180910390f35b6102df6004803603602081101561027e57600080fd5b810190808035906020019064010000000081111561029b57600080fd5b8201836020820111156102ad57600080fd5b803590602001918460208302840111640100000000831117156102cf57600080fd5b90919293919293905050506107fc565b60405180821515815260200191505060405180910390f35b60008054906101000a900460ff1681565b6002818154811061031857600080fd5b906000526020600020016000915054906101000a900473ffffffffffffffffffffffffffffffffffffffff1681565b60008060005b60028054905081101561048457610467600060019054906101000a900473ffffffffffffffffffffffffffffffffffffffff1673ffffffffffffffffffffffffffffffffffffffff166370a08231600284815481106103a857fe5b9060005260206000200160009054906101000a900473ffffffffffffffffffffffffffffffffffffffff166040518263ffffffff1660e01b8152600401808273ffffffffffffffffffffffffffffffffffffffff16815260200191505060206040518083038186803b15801561041d57600080fd5b505afa158015610431573d6000803e3d6000fd5b505050506040513d602081101561044757600080fd5b8101908080519060200190929190505050836108dd90919063ffffffff16565b915061047d6001826108dd90919063ffffffff16565b905061034d565b508091505090565b600160009054906101000a900473ffffffffffffffffffffffffffffffffffffffff1681565b600080600060019054906101000a900473ffffffffffffffffffffffffffffffffffffffff1673ffffffffffffffffffffffffffffffffffffffff166318160ddd6040518163ffffffff1660e01b815260040160206040518083038186803b15801561051d57600080fd5b505afa158015610531573d6000803e3d6000fd5b505050506040513d602081101561054757600080fd5b810190808051906020019092919050505090506000610576610567610347565b8361096590919063ffffffff16565b9050809250505090565b600060019054906101000a900473ffffffffffffffffffffffffffffffffffffffff1681565b6000600160009054906101000a900473ffffffffffffffffffffffffffffffffffffffff1673ffffffffffffffffffffffffffffffffffffffff163373ffffffffffffffffffffffffffffffffffffffff161461066b576040517f08c379a00000000000000000000000000000000000000000000000000000000081526004018080602001828103825260138152602001807f63616c6c6572206973206e6f74206f776e65720000000000000000000000000081525060200191505060405180910390fd5b6000151560008054906101000a900460ff1615151461068957600080fd5b81600060016101000a81548173ffffffffffffffffffffffffffffffffffffffff021916908373ffffffffffffffffffffffffffffffffffffffff16021790555060016000806101000a81548160ff02191690831515021790555060019050919050565b6000600160009054906101000a900473ffffffffffffffffffffffffffffffffffffffff1673ffffffffffffffffffffffffffffffffffffffff163373ffffffffffffffffffffffffffffffffffffffff16146107b2576040517f08c379a00000000000000000000000000000000000000000000000000000000081526004018080602001828103825260138152602001807f53656e646572206973206e6f74206f776e65720000000000000000000000000081525060200191505060405180910390fd5b81600160006101000a81548173ffffffffffffffffffffffffffffffffffffffff021916908373ffffffffffffffffffffffffffffffffffffffff16021790555060019050919050565b6000600160009054906101000a900473ffffffffffffffffffffffffffffffffffffffff1673ffffffffffffffffffffffffffffffffffffffff163373ffffffffffffffffffffffffffffffffffffffff16146108c1576040517f08c379a00000000000000000000000000000000000000000000000000000000081526004018080602001828103825260138152602001807f53656e646572206973206e6f74206f776e65720000000000000000000000000081525060200191505060405180910390fd5b8282600291906108d2929190610a6f565b506001905092915050565b60008082840190508381101561095b576040517f08c379a000000000000000000000000000000000000000000000000000000000815260040180806020018281038252601b8152602001807f536166654d6174683a206164646974696f6e206f766572666c6f77000000000081525060200191505060405180910390fd5b8091505092915050565b60006109a783836040518060400160405280601e81526020017f536166654d6174683a207375627472616374696f6e206f766572666c6f7700008152506109af565b905092915050565b6000838311158290610a5c576040517f08c379a00000000000000000000000000000000000000000000000000000000081526004018080602001828103825283818151815260200191508051906020019080838360005b83811015610a21578082015181840152602081019050610a06565b50505050905090810190601f168015610a4e5780820380516001836020036101000a031916815260200191505b509250505060405180910390fd5b5060008385039050809150509392505050565b828054828255906000526020600020908101928215610afe579160200282015b82811115610afd57823573ffffffffffffffffffffffffffffffffffffffff168260006101000a81548173ffffffffffffffffffffffffffffffffffffffff021916908373ffffffffffffffffffffffffffffffffffffffff16021790555091602001919060010190610a8f565b5b509050610b0b9190610b0f565b5090565b5b80821115610b28576000816000905550600101610b10565b509056fea2646970667358221220b9df35f42a3c71d302d8de6085577f290b6efbf8bcd4c7fa04696530414a501c64736f6c63430007050033",
  "linkReferences": {},
  "deployedLinkReferences": {}
}